S00B00006666742E73726563D9
S11300000C9434030C9451030C9451030C94510339
S11300100C9451030C9451030C9451030C9451030C
S11300200C9451030C9451030C9451030C945103FC
S11300300C9451030C9451030C9451030C945103EC
S11300400C9451030C9451030C9451030C945103DC
S11300500C9451030C9406050C9451030C94510315
S11300600C9451030C945103808080808080C0C024
S1130070C0C0C0C0E0E0E0E0E0E0F0F0F0F0F0F09C
S1130080F8F8F8F8F8F8FCFCFCFCFCFCFEFEFEFEBC
S1130090FEFE04067F06040010307F3010000808BE
S11300A0083E1C08081C3E080808505854525100C9
S11300B051525458500060584658600041635549A5
S11300C041004E7101714E00FF0000000000FFFF6F
S11300D000000000FFFFFF000000FFFFFFFF000023
S11300E0FFFFFFFFFF00FFFFFFFFFFFF00FFFFFF1A
S11300F0FFFF0000FFFFFFFF000000FFFFFF000005
S11301000000FFFF0000000000FF203EBF3E200073
S1130110040C1C0C0400003E1C08000000081C3EDB
S1130120000010181C18100000000000000000005F
S11301304F000000000700070000147F147F140024
S1130140242A7F2A1200C4C81026460036495522A4
S11301505000000503000000001C22410000004183
S1130160221C000014083E08140008083E08080079
S113017000A060000000101010101000006060006B
S113018000002010080402003E4149413E000042A4
S11301907F4000004261514946002141454B3100F6
S11301A01814127F10002745454539003C4A494937
S11301B030000171090503003649494936000649F2
S11301C049291E0000666600000000A666000000C3
S11301D008142241000014141414140000412214C1
S11301E00800020151090600324959513E007E09B6
S11301F009097E007F49494936003E4141412200B8
S11302007F4141221C007F49494941007F09090976
S113021001003E4149497A007F0808087F000041F7
S11302207F4100002040413F01007F08142241002B
S11302307F40404040007F020C027F007F04081092
S11302407F003E4141413E007F09090906003E41CD
S113025051215E007F091929460046494949310068
S113026001017F0101003F4040403F001F2040202A
S11302701F003F4038403F00631408146300070820
S113028070080700615149454300007F4141000067
S11302900204081020000041417F00000402010212
S11302A0040040404040404000010204000020544B
S11302B0545478007F48444438003844444420006F
S11302C0384444487F00385454541800087E0901C7
S11302D0020018A4A4A47C007F080404780000444D
S11302E07D4000004080847D00007F102844000091
S11302F000417F4000007C04180478007C0804045A
S11303007800384444443800FC2424241800182479
S11303102428FC007C080404080048545454240095
S1130320043F444020003C4040207C001C204020EE
S11303301C003C4030403C004428102844001CA0D1
S1130340A0A07C004464544C4400083641410000A1
S113035000007F00000000414136080008040C083A
S11303600400AA55AA55AA557C1211127C007F4993
S1130370494930007F49494936007F0101010100A4
S113038060302F217F007F494949410077087F0869
S113039077002241494936007F1008047F007D22FE
S11303A0120A7D007F0814224100403F01017F00B2
S11303B07F020C027F007F0808087F003E41414114
S11303C03E007F0101017F007F09090906003E41CB
S11303D04141220001017F010100434C300C030024
S11303E01C227F221C006314081463007F40407F9A
S11303F0C000070808087F007F407F407F003F203F
S11304003F20FF00017F484830007F4870007F0094
S11304107F4848483000224949493E007F083E4110
S11304203E00462919097F007C55545544000000BC
S113043079000000143E55554100487E4949420068
S11304405D2222225D00292A7C2A290000007700EF
S113045000000A555555280000010001000042BD66
S1130460A5817E00485555555E0008142A142200C3
S113047008080808380000080808000042BD95A9CB
S11304807E0001010101010006090906000044443F
S11304905F4444001915151200001115150A0000D7
S11304A0000002010000F8404038400006097F01C6
S11304B07F00001818000000008080C00000121F98
S11304C0100000004E5151514E0022142A1408000D
S11304D0100F6452F900100FD4AA9900351F64520A
S11304E0F900304845402000781516147800781437
S11304F01615780078161516780072292A2A7100C4
S11305007815141578007817151778007E09097F77
S113051049001EA1A1E112007C55565444007C54AC
S1130520565544007C56555644007C555455440059
S113053000457E44000000447E45000000467D46A0
S1130540000000457C450000497F49413E007A098E
S1130550122279003845464438003844464538006C
S11305603846454638003A454646390038454445FC
S113057038002214081422003E7149473E003C41D1
S113058042403C003C4042413C003C4241423C0031
S11305903C4140413C00044872490400417F5555A8
S11305A00800007E01493600205556547800205436
S11305B056557800205655567800225556567900DF
S11305C020555455780020545757780024547854B3
S11305D0580018A4E42424003855565418003854FC
S11305E056551800385655561800385554551800A5
S11305F000497A40000000487A410000004A7942EC
S113060000000049784100002055525538007A1105
S11306100A0A710030494A48300030484A493000DB
S1130620304A494A300032494A4A3100304948493F
S11306303000086B6B0800005864544C3400384197
S11306404220780038404221780038424122780024
S113065038414021780018A0A2A178000082FEA8A9
S1130660100018A1A0A1780011241FBECFEFD8E07C
S1130670DEBFCDBF12E0A0E0B1E0E8ECF0E102C0E3
S113068005900D92A23CB107D9F725E0A2ECB2E0A7
S113069001C01D92AF3BB207E1F70E94EB050C9439
S11306A062080C9400008602C0011124BC01062ECD
S11306B0672F000C661F770B000C661F771FCB019A
S11306C0959587956170860F08952F923F924F926A
S11306D05F926F927F928F929F92AF92BF92CF92CE
S11306E0DF92EF92FF920F931F93CF93DF93CDB7D7
S11306F0DEB769970FB6F894DEBF0FBECDBFE1E059
S1130700F0E03F0102C0660C771C4A95E2F731E045
S1130710631673060CF055C1A301415051095D8362
S11307204C8314161506DCF501E010E0A0E0B0E0FF
S113073031E06A01A30155954795FA01EA0FFB1FC1
S1130740CE16DF06C4F3FA013197AE23BF23A40FFC
S1130750B51F0A171B07ECF4A32EB12C8C010A0D4C
S11307601B1DF801F080AC014A0F5B1FFA01E08009
S1130770F801E082FA01F082A60EB71EF50110819D
S1130780AB014A0F5B1FFA010081F5010083FA01F6
S113079010833F5F032F10E0C016D1065CF6F2E031
S11307A06F1671040CF408C12B8B788B6F879E87AE
S11307B08D871D8A1C8A47E050E05A8B498B81E063
S11307C090E09C878B87ED84FE84E60CF71CFF8AFF
S11307D0EE8A04C0E884F984FC86EB86FB88FF205B
S11307E0D9F116141704DCF5ED85FE858081082EF9
S11307F0000C990BEF85F88940819C01992324F41E
S113080022273327281B390B203431050CF0DCC098
S1130810403408F0D9C0ED85FE853196AF85B8899E
S113082011966E897F898191082E000C990B4D9148
S11308309C01992324F422273327281B390B2034C5
S113084031050CF0C1C0403408F0BEC0E617F7070C
S113085051F700E010E005C001E010E002C000E044
S113086010E0EB84FC84EE0CFF1CF986E886EB8434
S1130870FC841E141F040CF092C0A12CB12C1A8607
S113088088849984F501098802C0EE0FFF1F0A9439
S1130890E2F7E050FF4FDF01A05CBF4FFC90FB820A
S11308A0E080EA82FB88F11002C0E194EA8201153B
S11308B0110531F0EB80E594EB82FA80F594FA822D
S11308C0A614B7040CF060C04B845C844A0C5B1C17
S11308D02D843E84240C351CEF84F8884E0C5F1C58
S11308E0CD84DE84CA0CDB1CEA0CFB1CF98EE88E7A
S11308F03F822E82F101E0806E2D8B810E94530392
S1130900F82E5D824C82F201F081F9836F2F8A8187
S11309100E945303F81A69818B810E9453038983CF
S11309206E2D8A810E945303E9808E0DD6012C918D
S1130930488D598DFA0190810115110511F0259505
S11309409595322F3F19EE81FF813083392F381B63
S1130950EC81FD8130832F0D2C93980FFA01908345
S1130960E884F984AE0CBF1C280C391C480C591CB3
S1130970C80CD91CE88CF98CE80CF91CF98EE88EAB
S1130980A614B7040CF4B4CF3A853F5F3A87A32E7C
S1130990B12CEB84FC84AE14BF040CF473CF4989EE
S11309A05A89415051095A8B498BE884F984E614D9
S11309B0F7040CF40FCF02C01D8A1C8A8C899D8910
S11309C00CC08FEF9FEF09C04C895D894F5F5F4F6B
S11309D05D8B4C8B01E010E044CF69960FB6F89420
S11309E0DEBF0FBECDBFDF91CF911F910F91FF905E
S11309F0EF90DF90CF90BF90AF909F908F907F90BB
S1130A006F905F904F903F902F9008951F920F9298
S1130A100FB60F9211248F939F93EF93FF938091BE
S1130A2079009091C402E091C502F091C602E90FE9
S1130A30F11D805880838091C4028F5F8093C4022B
S1130A4088230CF595B182E0892785B98091C0028D
S1130A50882349F087EC92E09093C6028093C50204
S1130A601092C00209C087E493E09093C602809379
S1130A70C50281E08093C0028091C20281E080932C
S1130A80C2021092C402FF91EF919F918F910F9037
S1130A900FBE0F901F90189580E680937C008FEE18
S1130AA080937A0010927B00089580E00E946A0788
S1130AB0559A8AE30E94AB070895AF92BF92CF92F2
S1130AC0DF92EF92FF920F931F93CF93DF937C01FA
S1130AD0D62EEA0189010E943F07DD2069F01BC080
S1130AE0FE01E80FF91F20E04081602F8DE40E9491
S1130AF0D9071F5F085F02C000E010E0812F90E07B
S1130B00FE0101900020E9F73197EC1BFD0B8E17D5
S1130B109F0730F348C081E0D81245C00CC0F801EB
S1130B20E80FF91F20E040816D2F8DE40E94D90762
S1130B30CF5FD85F02C0D0E0C0E08C2F90E0F80116
S1130B4001900020E9F73197E01BF10B8E179F0706
S1130B5030F329C06D2D611B802F0E94BC071F5FDD
S1130B60CB2DDC2DD701EC91F0E0E054FE4F8081D9
S1130B70811780F789816A2D681B802F0E94BC072A
S1130B8089816D2D681B802F0E94BC070F5FB2E026
S1130B90EB0EF11C003421F010E0BE2CCF2CDACF88
S1130BA00E944A070DC082E0E80EF11C01E00F2EFE
S1130BB0F0E3DF2EF02D0F2EFFE2AF2EF02DECCF61
S1130BC0DF91CF911F910F91FF90EF90DF90CF9025
S1130BD0BF90AF900895CF93DF93CDB7DEB7C850E1
S1130BE0D1400FB6F894DEBF0FBECDBF87EC92E0C4
S1130BF09093C6028093C5028DE699E6CF5FDE4FDF
S1130C0099838883C150D14083E690E0CD5FDE4F65
S1130C1099838883C350D14081E695E7CB5FDE4F4B
S1130C2099838883C550D14088E790E0C95FDE4F3F
S1130C3099838883C750D1400E9455050E944C0572
S1130C4084B1836084B95198599A7894B12C7E0107
S1130C5021E8E20EF11C8E010F531F4FAA24A39426
S1130C600F2EFCE7CF2ED12CF02D8091C2028823C9
S1130C70E1F3289A8091C002882309F449C020E056
S1130C8047E0B70187EC92E00E9465039701FE01FB
S1130C9031964701B401621B730B69537D4FDB012D
S1130CA08C914C91D4019D914D018402A001112499
S1130CB05595479555954795559547955595479518
S1130CC0559547959902C001112495958795959559
S1130CD08795959587959595879595958795840F8F
S1130CE0AF0180839181981730F490E080549E4F37
S1130CF0DC018C918183DA0111968C9111978230F9
S1130D0010F411961C9232968016910619F64EC074
S1130D1020E047E0B70187E493E00E946503970170
S1130D20FE0131964701B401621B730B695B7C4F72
S1130D30DB018C914C91D4019D914D018402A00161
S1130D40112455954795559547955595479555952E
S1130D504795559547959902C00111249595879516
S1130D609595879595958795959587959595879567
S1130D70840FAF0180839181981730F490E0805400
S1130D809E4FDC018C918183DA0111968C9111972D
S1130D90823020F0815011968C9303C0DA011196B1
S1130DA01C9232968016910609F0BDCF9E012B5FEE
S1130DB03E4FAE014F5F5E4F6091C302CE0101967C
S1130DC00E945D05499915C0BFE3EDE0F3E0B15021
S1130DD0E040F040E1F700C0000049991EC0B110A6
S1130DE00AC08091C3028F5F8230D8F01092C30290
S1130DF004C0B12C12C0BA2C10C0D6018C91807FD3
S1130E008C93BA2C0AC0F6018081807F8083808114
S1130E1081608083BA2C01C0BA2C28981092C20237
S1130E2024CF8093C302882341F3813061F3F4CF4C
S1130E309FB7F8945B985A982CB52F7D2CBD8EBD26
S1130E400DB407FEFDCF5B9A9FBF08959FB7F8943A
S1130E505B985A9A2CB520622CBD8EBD0DB407FE4A
S1130E60FDCF5B9A9FBF0895CF93C62F80680E94E1
S1130E7018078C2F80640E941807CF91089588EF7B
S1130E8091E0E7ECF3E0DF019C011D92215030403A
S1130E90E1F708950F931F93CF93DF9360E080E011
S1130EA00E943407CFEBD5E007EC13E08A910E944F
S1130EB02607C017D107D1F760E080E00E9434070D
S1130EC0DF91CF911F910F9108950E943F070E94D7
S1130ED04A070895CF93C82F539A549A259A529A41
S1130EE0239A229A8CB580658CBD8DB581608DBDA9
S1130EF08CB580628CBD2FE73AE186E0215030400A
S1130F008040E1F700C000008FB7F8945B985C98CC
S1130F109FE72AE136E0915020403040E1F700C0DD
S1130F2000005C9A5B9A8FBF81E20E9418078C2FA5
S1130F3080680E94180784E00E94180783E10E94D9
S1130F40180780E20E9418078CE00E9418070E948C
S1130F506507CF910895CF93C82F81E20E941807A7
S1130F608C2F80680E94180780E20E9418078CE08A
S1130F700E941807CF9108958435D0F46033C0F4EB
S1130F80962F969596959695E82FF0E084E5989F90
S1130F90E00DF11D1124E953FC4F677081E090E0EE
S1130FA002C0880F991F6A95E2F79081892B80838C
S1130FB008958F929F92AF92BF92CF92DF92EF9259
S1130FC0FF920F931F93CF93DF93762F7770E62EC4
S1130FD0E694E694E69494E5E99E70011124C72E04
S1130FE0D12CEFEFF0E0DF01072E02C0AA0FBB1FE8
S1130FF00A94E2F73A2F3095A8E0B0E05D01AC180E
S1131000BD080A2C02C0F595E7950A94E2F79E2ED6
S1131010909450E0FA01EE0FFF1FE40FF51FEE0F5E
S1131020FF1FE859FF4F082F10E0D701A00FB11F91
S1131030A953BC4FE701C00FD11FC55EDB4F0E0D96
S11310401F1D03531C4F4491213019F0223019F015
S113105003C0409501C04068CD018E199F09875C8B
S1131060934084359105DCF450E08C91832E8822E2
S1131070CA010C2C02C0880F991F0A94E2F7882930
S11310808C93683260F4772351F0888189210A2C8B
S113109002C0559547950A94E2F7482B4883319648
S11310A011962196A017B10771F6DF91CF911F9188
S11310B00F91FF90EF90DF90CF90BF90AF909F90F3
S10B10C08F900895F894FFCF0E
S11310C8000306090C0F1215181C1F2225282B2EA5
S11310D8303336393C3F414447494C4E51535558B7
S11310E85A5C5E60626466686A6C6D6F7072737570
S11310F8767778797A7B7C7C7D7E7E7F7F7F7F7F25
S11311087F7F7F7F7F7F7E7E7D7C7C7B7A7978770B
S113111876757372706F6D6C6A68666462605E5C23
S11311285A585553514E4C494744413F3C3936333C
S1131138302E2B2825221F1C1815120F0C09060304
S113114800FDFAF7F4F1EEEBE8E4E1DEDBD8D5D202
S1131158D0CDCAC7C4C1BFBCB9B7B4B2AFADABA8D0
S1131168A6A4A2A09E9C9A9896949391908E8D8BF7
S11311788A89888786858484838282818181818122
S113118801060A0C0E101112131415161617181846
S113119819191A1A1A1B1B1C1C1C1D1D1D1E1E1E88
S11311A81E1F1F1F1F202020202021212121212232
S11311B822222222222323232323232424242424F3
S11311C824242525252525252525262626262626BF
S11311D82626262627272727272727272727282895
S11311E8282828282828282828292929292929296C
S11311F82929292929292A2A2A2A2A2A2A2A2A2A49
S11312082A2A2A2A2A2B2B2B2B2B2B2B2B2B2B2B27
S11312182B2B2B2B2B2C2C2C2C2C2C2C2C2C2C2C07
S11312282C2C2C2C2C2C2C2D2D2D2D2D2D2D2D2DE9
S11312382D2D2D2D2D2D2D2D2D2D2D2D2E2E2E2ECE
S11312482E2E2E2E2E2E2E2E2E2E2E2E2E2E2E2EB2
S11312582E2E2E2F2F2F2F2F2F2F2F2F2F2F2F2F95
S11312682F2F2F2F2F2F2F2F2F2F2F2F2F3030307F
S11312783030303030303030303030303030303062
S105128801005F
S9030000FC
